:020000040800F2
:1000000000000220152900080D2800080F2800080C
:100010001128000813280008152800080000000017
:100020000000000000000000000000001728000889
:1000300019280008000000001B2800081D280008DF
:100040006529000865290008652900086529000858
:100050006529000865290008652900086529000848
:100060006529000865290008652900086529000838
:100070006529000865290008652900086529000828
:100080006529000865290008652900086529000818
:100090006529000865290008652900086529000808
:1000A00065290008652900086529000865290008F8
:1000B00065290008652900086529000865290008E8
:1000C00065290008652900086529000865290008D8
:1000D00065290008652900086529000865290008C8
:1000E00065290008652900086529000865290008B8
:1000F00065290008652900086529000865290008A8
:100100006529000865290008652900086529000897
:100110006529000865290008652900086529000887
:100120006529000865290008652900086529000877
:100130006529000865290008652900086529000867
:100140006529000865290008652900086529000857
:100150006529000865290008652900086529000847
:100160006529000865290008652900086529000837
:1001700065290008652900086529000800000000BD
:0801800065290008652900084B
:1001880010B5054C237833B9044B13B10448AFF3C9
:1001980000800123237010BD5000002000000000E3
:1001A800782A000808B5034B1BB103490348AFF38D
:1001B800008008BD0000000054000020782A0008D4
:1001C800034613F8012B002AFBD1181A013870478F
:1001D80053B94AB9002908BF00281CBF4FF0FF31A6
:1001E8004FF0FF3000F06AB9ADF1080C6DE904CEAC
:1001F80000F006F8DDF804E0DDE9022304B07047FA
:100208002DE9F047089D0C46002B4ED194468C45AD
:100218008646B2FA82F262D94AB1C2F1200391400D
:1002280020FA03F30CFA02FC194300FA02FE4FEA23
:100238001C471FFA8CF6B1FBF7F44FEA1E4307FB85
:10024800141143EA014304FB06F199420AD91CEB55
:10025800030304F1FF3080F01281994240F20F81CC
:10026800023C6344591A1FFA8EF3B1FBF7F007FBFF
:10027800101143EA014300FB06F69E420AD91CEB23
:10028800030300F1FF3180F0FC809E4240F2F980C8
:10029800634402389B1B40EA044000211DB1D3404F
:1002A8000022C5E90032BDE8F0878B4205D90DB1BF
:1002B800C5E9000100210846F5E7B3FA83F10029F2
:1002C80046D1A34202D39042C0F0F080861A64EB74
:1002D80003030120002DE6D0C5E90063E3E7002A07
:1002E80040F09080A1EB0C044FEA1C481FFA8CF7F1
:1002F8000121B4FBF8F64FEA1E4308FB164443EA13
:10030800044307FB06F0984208D91CEB030306F1E7
:10031800FF3402D2984200F2CD8026461C1A1FFAFA
:100328008EF3B4FBF8F008FB104443EA044300FBE7
:1003380007F79F4208D91CEB030300F1FF3402D2F0
:100348009F4200F2B0802046DB1B40EA0640A5E74A
:10035800C1F120068B4022FA06F71F4320FA06FC5B
:1003680004FA01F343EA0C03F44000FA01F8380CEC
:100378004FEA1349B4FBF0FE1FFA87FC00FB1E444A
:1003880049EA04440EFB0CF9A14502FA01F20AD924
:100398003C190EF1FF3A80F08480A14540F281803B
:1003A800AEF1020E3C44A4EB09041FFA83F9B4FB36
:1003B800F0F300FB134449EA044403FB0CFCA44596
:1003C80007D93C1903F1FF3067D2A44565D9023B30
:1003D8003C4443EA0E40A0FB0293A4EB0C049C426D
:1003E800CE469C4651D34ED055B1B8EB0E0364EBC4
:1003F8000C0404FA06F6CB401E43CC40C5E9006461
:10040800002150E7C2F1200320FA03F10CFA02FCA4
:1004180024FA03F394400C434FEA1C4800FA02FE06
:100428001FFA8CF7B3FBF8F008FB1031230C43EAF2
:10043800014300FB07F1994208D91CEB030300F1C3
:10044800FF362CD299422AD9023863445B1AA4B2E7
:10045800B3FBF8F108FB113344EA034401FB07F34B
:10046800A34208D91CEB040401F1FF3613D2A342BE
:1004780011D902396444E41A41EA004139E70446D3
:10048800F0E6084606E7C845AED2B9EB020E63EBC4
:10049800070C0138A8E73146EDE7034699E73046EF
:1004A800D4E7D6467FE7634402384DE7064623463D
:1004B80008460FE7023E634430E700BF704700BFBD
:1004C80010B504460E4B1A784FF47A73B3FBF2F367
:1004D8000C4A1068B0FBF3F000F0ACF868B90F2CC8
:1004E80001D901200AE0002221464FF0FF3000F038
:1004F80091F8034B5C60002000E0012010BD00BFB4
:10050800000000204800002008B50B4B1A6842F490
:1005180000721A601A6842F480621A601A6842F41B
:1005280080721A60032000F063F80020FFF7C8FF0C
:1005380002F04CF9002008BD003C0240034A116853
:10054800034B1B780B441360704700BF6C000020FE
:1005580000000020014B1868704700BF6C000020A5
:1005680038B50446FFF7F6FF0546B4F1FF3F02D061
:10057800044B1B781C44FFF7EDFF401BA042FAD345
:1005880038BD00BF00000020002808DB0901C9B2FF
:1005980000F1604000F5614080F80013704700F0FA
:1005A8000F000901C9B2014B1954704714ED00E05E
:1005B80000B500F00700C0F1070CBCF1040F28BF1C
:1005C8004FF0040C031D062B0FD9C31E4FF0FF3E3E
:1005D8000EFA0CF021EA000199400EFA03FE22EA15
:1005E8000E0241EA02005DF804FB0023EEE700007A
:1005F800074AD36823F4E0631B041B0C000200F4D1
:10060800E060034343F0BF6343F40033D3607047B3
:1006180000ED00E010B50446054BD868C0F3022091
:10062800FFF7C6FF01462046FFF7AEFF10BD00BF2B
:1006380000ED00E00138B0F1807F0BD24FF0E023ED
:100648005861054AF02182F823100020986107229A
:100658001A6170470120704700ED00E000230F2B5E
:1006680000F2E98070B582B065E085684FEA430E14
:10067800032404FA0EF425EA0405CC6804FA0EF4FF
:100688002C438460446824EA02044A68C2F30012D6
:100698009A40224342605CE0DC08083450F8242089
:1006A80003F00705AD004FF00F0E0EFA05FE22EA23
:1006B8000E0E0A69AA4042EA0E0240F824205CE0C5
:1006C800072200E0002202FA0EF22A4302345A4DB1
:1006D80045F82420594A94686FEA0C0224EA0C056C
:1006E8004E6816F4801F01D04CEA0405534CA560EF
:1006F800E46802EA04054E6816F4001F01D04CEACB
:1007080004054E4CE560646802EA04054E6816F478
:10071800003F01D04CEA0405484C6560246822403B
:100728004D6815F4803F01D04CEA0402434C226026
:1007380001330F2B7DD801229A400C6804EA020C81
:1007480032EA0404F4D14C6804F00304013C012C9F
:100758008BD94A6802F00302032A09D0C4685D00F5
:100768000322AA4024EA02048A68AA402243C260FB
:100778004A6802F00302022A8ED004684FEA430E48
:10078800032202FA0EF224EA02044A6802F0030283
:1007980002FA0EF2224302604A6812F4403FC7D0C0
:1007A80000220192264A546C44F480445464526CEA
:1007B80002F480420192019A9C08A51C1E4A52F834
:1007C800255003F0030E4FEA8E0E0F2202FA0EF2A6
:1007D80025EA02051B4A90423FF474AF02F5806295
:1007E80090421AD002F58062904218D002F58062D9
:1007F800904216D002F58062904214D002F58062D1
:10080800904212D002F58062904210D002F58062C8
:1008180090423FF455AF082255E7012253E70222E0
:1008280051E703224FE704224DE705224BE7062252
:1008380049E702B070BD704700380140003C0140F4
:1008480000380240000002400AB181617047090483
:100858008161704703685A6912F4806F01D10020E2
:1008680070476FF480625A6100230363202280F886
:100878003D2080F83E30026C42F00402026480F8A9
:100888003C30012070472DE9F04107460D4690465F
:100898001E4624E0FFF75EFE069BC01AB04200D851
:1008A800EEB900233B63202287F83D2087F83E30CD
:1008B8003A6C42F020023A6487F83C3001201EE08E
:1008C8003B689C6925EA040C1FFA8CFCBCFA8CFC7A
:1008D8004FEA5C1CE04511D1B6F1FF3FDAD1C5F310
:1008E8000743012BECD13B685B6925EA030C1FFA2F
:1008F8008CFCBCFA8CFC4FEA5C1CEBE70020BDE8E2
:10090800F0812DE9F04105460E46174698463DE030
:100918001A6842F400721A602B686FF480625A6198
:1009280000232B63202285F83D2085F83E302A6C71
:1009380042F004022A6485F83C30012034E0FFF7D5
:1009480009FEA0EB0800B84200D8FFB900232B63CA
:10095800202285F83D2085F83E302A6C42F020029E
:100968002A6485F83C3001201EE02B689C6926EA41
:100978000404A4B2003C18BF0124A4B12B685A692E
:1009880012F4806FC4D1B7F1FF3FD8D1C6F3074343
:10099800012BEAD12B685C6926EA0404A4B2003C66
:1009A80018BF0124E9E70020BDE8F08170B50446CE
:1009B8000D46164623685B6913F0800F1CD120464C
:1009C800FFF748FFD0B9B5F1FF3FF3D0FFF7C2FDFD
:1009D800801BA84201D8002DECD1002323632022DC
:1009E80084F83D2084F83E30226C42F020022264D4
:1009F80084F83C30012000E0002070BD0120FCE7B5
:100A08002DE9F04385B004460D4691461F46DDF8B2
:100A180030800D9E0368196841F480711960009652
:100A2800434600224FF00111FFF72DFF60B92368FC
:100A380005F0FE051D613346424626492046FFF76C
:100A480060FF68B1012008E023681B6813F4807F09
:100A580002D04FF400732364032005B0BDE8F0838F
:100A68000023039323685A6903929B690393039BAA
:100A7800324641462046FFF799FF30B9012F0FD182
:100A880023685FFA89F61E61E7E7236C042B01D01F
:100A98000120E2E72268136843F400731360F7E764
:100AA80023684FEA19221A61324641462046FFF769
:100AB8007DFF20B923685FFA89F61E61CDE7236CB4
:100AC800042B01D00120C8E72268136843F400739F
:100AD8001360F7E7020001002DE9F04784B00446EF
:100AE8000D46164699460C9FDDF834800268136857
:100AF80043F4806313600368196841F480711960D6
:100B0800CDF800803B4600224FF00111FFF7BBFEF5
:100B180070B95FFA85FA236805F0FE051D61434642
:100B28003A4641492046FFF7ECFE68B1012008E04B
:100B380023681B6813F4807F02D04FF4007323648A
:100B4800032004B0BDE8F0870023039323685A69A3
:100B580003929B690393039B424639462046FFF75D
:100B680025FF80B9B9F1010F18D12368F6B21E61CB
:100B7800424639462046FFF719FF68B3236C042B19
:100B880024D00120DDE7236C042B01D00120D8E715
:100B98002268136843F400731360F7E72368320A86
:100BA8001A61424639462046FFF700FF18B9236804
:100BB800F6B21E61DCE7236C042B01D00120C0E7EC
:100BC8002268136843F400731360F7E72268136818
:100BD80043F400731360D4E72268136843F4807306
:100BE8001360CDF800803B4600224FF001112046EB
:100BF800FFF749FE68B922684AF0010313614346CA
:100C08003A4609492046FFF77CFE002899D0012082
:100C180097E723681B6813F4807F02D04FF40073B2
:100C2800236403208DE700BF0200010070B504466D
:100C38000D46164623685B6913F0040F1CD1204645
:100C4800FFF708FED0B9B5F1FF3FF3D0FFF782FCFC
:100C5800801BA84201D8002DECD100232363202259
:100C680084F83D2084F83E30226C42F02002226451
:100C780084F83C30012000E0002070BD0120FCE732
:100C880070B505460C4616462B68596911F0400F99
:100C980029D1596911F0100F15D1FFF75BFC801BA2
:100CA800A04201D8002CEFD100232B63202285F825
:100CB8003D2085F83E302A6C42F020022A6485F8EF
:100CC8003C30012070BD6FF010025A6100232B6385
:100CD800202285F83D2085F83E302A6C2A6485F864
:100CE8003C300120EEE70020ECE70000002800F08F
:100CF800CC8070B5044690F83D30002B77D0242383
:100D080084F83D302268136823F0010313602268D9
:100D1800136843F4004313602268136823F4004304
:100D2800136000F0EBFD62685A4B9A4264D85A4B44
:100D380098428CBF00230123002B40F0A88057491C
:100D4800A1FB00318B0C25686A6822F03F0242EA59
:100D580091426A6021680A6A22F03F0266684D4D36
:100D6800AE424FD8013313430B622168CA6922F49B
:100D78004F4222F0FF026568464B9D424CD8431E05
:100D88006D00B3FBF5F3013340F6FC70034278D0F5
:100D9800C3F30B031A43CA6121680B6823F0C0032D
:100DA800E269206A024313430B6021688B6823F4CD
:100DB800034323F0FF032269E068024313438B6077
:100DC8002168CB6823F0FF036269A06902431343DB
:100DD800CB602268136843F001031360002020648D
:100DE800202384F83D30206384F83E0070BD80F8ED
:100DF8003C3001F0B5F982E7294B98428CBF0023BB
:100E0800012399E74FF4967505FB03F3254DA5FBE0
:100E180003539B090133A6E7A668BEB9431E05EB39
:100E2800450CB3FBFCF30133C3F30B03B3FA83F3B1
:100E38005B0943BBC6B9431E05EB4505B3FBF5F398
:100E48000133C3F30B0343F40043A3E7431E05EB4D
:100E5800850C0CEB8C0CB3FBFCF30133C3F30B03D5
:100E6800B3FA83F35B09E4E7431E05EB850505EB5D
:100E78008505B3FBF5F30133C3F30B0343F4404398
:100E880088E7042386E7012384E7012070470120CF
:100E9800ACE700BFA08601007F841E0083DE1B43F1
:100EA800FF083D00D34D62102DE9F04383B004469E
:100EB8000F46904699460C9EFFF74CFB054694F862
:100EC8003D00C0B2202803D0022003B0BDE8F08363
:100ED8000095192301224B492046FFF7D4FC00282E
:100EE80040F0898094F83C30012B00F08680012383
:100EF80084F83C3023681A6812F0010F03D11A688D
:100F080042F001021A602268136823F40063136038
:100F1800212384F83D30402384F83E3000232364A5
:100F28000A9B6362BDF82C306385638D2385364B3D
:100F3800E362019500964B46424639462046FFF744
:100F48005FFD00285BD1238D002B35D02A46314622
:100F58002046FFF72BFD20BB626A236812781A61CE
:100F6800626A531C6362218D013989B22185638DC0
:100F78009BB2013B9BB263852368586910F0040F4C
:100F8800E1D00029DFD052781A61636A01336362C5
:100F9800238D013B2385638D9BB2013B9BB2638507
:100FA800D1E7236C042B01D001208EE72268136857
:100FB80043F400731360F7E72A4631462046FFF7EB
:100FC80035FE50B1236C042B01D001207DE7226847
:100FD800136843F400731360F7E72268136843F457
:100FE80000731360202384F83D30002384F83E30DA
:100FF80084F83C3069E7022067E7022065E70120B2
:1010080063E700BF020010000000FFFF2DE9F04376
:1010180087B004460F4690469946109EFFF79AFA05
:10102800054694F83D00C0B2202804D0022738466F
:1010380007B0BDE8F08300951923012288492046AE
:10104800FFF721FC002840F0438194F83C30012B45
:1010580000F04081012384F83C3023681A6812F0BC
:10106800010F03D11A6842F001021A60226813685E
:1010780023F400631360222384F83D30402384F86E
:101088003E30002323640E9B6362BDF83C306385C9
:10109800638D2385734BE362019500964B46424668
:1010A80039462046FFF718FD0746002840F014810E
:1010B800238D5BB9029323685A6902929A69029256
:1010C800029A1A6842F400721A6075E0012B0AD07D
:1010D800022B1AD00023059323685A6905929B694D
:1010E8000593059B68E02268136823F48063136006
:1010F8000023039323685A6903929A690392039A17
:101108001A6842F400721A6056E02268136823F4E1
:10111800806313602268136843F40063136000233C
:10112800049323685A6904929B690493049B43E0DF
:101138002A4631462046FFF7A3FD002840F0CE801E
:1011480023681A69636A1A70636A01336362238DBC
:10115800013B2385638D9BB2013B9BB263852BE0EA
:1011680000953346002240492046FFF78CFB0028B3
:1011780040F0B6802268136843F400731360236854
:101188001A69636A1A70626A531C6362238D013B91
:101198002385638D9BB2013B9BB2638523681B69E2
:1011A8005370636A01336362238D013B2385638D2A
:1011B8009BB2013B9BB26385238D002B7FD0032B11
:1011C80054D8012BB4D0022BCAD000953346002244
:1011D80025492046FFF757FB002840F08380226806
:1011E800136823F48063136023681A69636A1A70AA
:1011F800636A01336362238D013B2385638D9BB250
:10120800013B9BB263850095334600221649204670
:10121800FFF739FB002867D12268136843F400738D
:10122800136023681A69636A1A70626A531C6362DE
:10123800238D013B2385638D9BB2013B9BB2638564
:1012480023681B695370636A01336362238D013B12
:101258002385638D9BB2013B9BB26385ACE700BFDE
:10126800020010000000FFFF040001002A4631467A
:101278002046FFF705FD002838D123681A69636AFC
:101288001A70626A531C6362238D013B2385638D48
:101298009BB2013B9BB263852368596911F0040F27
:1012A8008AD01B695370636A01336362238D013BE3
:1012B8002385638D9BB2013B9BB263857CE720232A
:1012C80084F83D30002384F83E3084F83C30AEE6A4
:1012D8000227ACE60227AAE60127A8E60127A6E628
:1012E8000127A4E60127A2E60127A0E601279EE63A
:1012F800002800F0E08170B582B00446036813F05E
:10130800010F3BD09F4B9B6803F00C03042B2CD0A0
:101318009C4B9B6803F00C03082B21D06368B3F542
:10132800803F4FD0B3F5A02F52D0964B1A6822F4C5
:1013380080321A601A6822F480221A606368002BCF
:1013480050D0FFF707F905468E4B1B6813F4003F92
:1013580014D1FFF7FFF8401B6428F5D90320B1E149
:10136800884B5B6813F4800FD8D0864B1B6813F446
:10137800003F03D06368002B00F09F81236813F0BF
:10138800020F54D07F4B9B6813F00C0F3ED07D4B5F
:101398009B6803F00C03082B33D0E368002B68D05C
:1013A800794B01221A60FFF7D5F80546754B1B6883
:1013B80013F0020F54D1FFF7CDF8401B0228F5D9DE
:1013C80003207FE16F4A136843F480331360B5E765
:1013D8006C4B1A6842F480221A601A6842F4803210
:1013E8001A60ABE7FFF7B6F80546664B1B6813F4BF
:1013F800003FC3D0FFF7AEF8401B6428F5D903209F
:1014080060E1604B5B6813F4800FC6D15D4B1B68CD
:1014180013F0020F03D0E368012B40F05081594AC2
:10142800136823F0F803216943EAC10313602368B2
:1014380013F0080F42D063696BB3534B0122C3F812
:10144800802EFFF787F805464E4B5B6F13F0020FAF
:1014580034D1FFF77FF8401B0228F5D9032031E18A
:10146800484A136823F0F803216943EAC10313606B
:10147800DDE7454B00221A60FFF76CF80546414B43
:101488001B6813F0020FD2D0FFF764F8401B022844
:10149800F5D9032016E13C4B0022C3F8802EFFF754
:1014A80059F80546374B5B6F13F0020F06D0FFF76C
:1014B80051F8401B0228F5D9032003E1236813F0F3
:1014C800040F77D02F4B1B6C13F0805F33D10023B0
:1014D80001932C4B1A6C42F080521A641B6C03F077
:1014E80080530193019B0125284B1B6813F4807FCF
:1014F80023D0A368012B34D0052B38D0214B1A6F89
:1015080022F001021A671A6F22F004021A67A36810
:10151800002B3DD0FFF71EF806461A4B1B6F13F041
:10152800020F46D1FFF716F8801B41F28833984224
:10153800F3D90320C6E00025D6E7144A136843F41C
:1015480080731360FFF706F80646104B1B6813F408
:10155800807FCED1FEF7FEFF801B0228F5D903203D
:10156800B0E0084A136F43F001031367CFE7054B58
:101578001A6F42F004021A671A6F42F001021A67E2
:10158800C5E700BF00380240000047420070004035
:10159800FEF7E0FF0646524B1B6F13F0020F08D010
:1015A800FEF7D8FF801B41F288339842F3D9032015
:1015B80088E0EDB9A369002B00F08380484A92685F
:1015C80002F00C02082A51D0022B17D0454B0022FA
:1015D8001A66FEF7BFFF0446414B1B6813F0007FF5
:1015E80042D0FEF7B7FF001B0228F5D9032069E0B7
:1015F8003B4A136C23F080531364DBE7394B00221A
:101608001A66FEF7A7FF0546354B1B6813F0007FE7
:1016180006D0FEF79FFF401B0228F5D9032051E0B2
:10162800E369226A1343626A43EA8213A26A520890
:10163800013A43EA0243E26A43EA0263284A5360F2
:10164800284B01221A66FEF785FF0446244B1B68C7
:1016580013F0007F06D1FEF77DFF001B0228F5D9A5
:1016680003202FE000202DE000202BE0012B2BD0C1
:101678001B4B5B6803F48001E269914226D103F0B9
:101688003F02216A8A4223D1616A47F6C0721A4032
:10169800B2EB811F1ED103F44031A26A5208013A0D
:1016A800B1EB024F18D103F07063E26AB3EB026F3B
:1016B80014D1002006E001207047012002E001203B
:1016C80000E0002002B070BD0120FBE70120F9E72F
:1016D8000120F7E70120F5E70120F3E70120F1E712
:1016E800003802400000474208B5264B9B6803F0CB
:1016F8000C03042B41D0082B41D1224B5A6802F02D
:101708003F025B6813F4800F12D01E4B5968C1F377
:1017180088111D480023A1FB0001FEF759FD194B54
:101728005B68C3F3014301335B00B0FBF3F027E0D0
:10173800144B5868C0F388104FEA401CBCEB000CEF
:101748006EEB0E0E4FEA8E1343EA9C634FEA8C1140
:10175800B1EB0C0163EB0E03DB0043EA5173C900E4
:1017680011EB000C43F10003990200234FEA8C208F
:1017780041EA9C51FEF72CFDD1E7034800E00348FD
:1017880008BD00BF0038024040787D010024F40005
:10179800002800F09B8070B50D4604464F4B1B682F
:1017A80003F007038B4208D2CBB24C4A137013687C
:1017B80003F007038B4240F08B80236813F0020F7D
:1017C80017D013F0040F04D0454A936843F4E0534C
:1017D8009360236813F0080F04D0414A936843F4D8
:1017E800604393603E4A936823F0F003A1680B437B
:1017F8009360236813F0010F32D06368012B21D066
:101808009A1E012A25D9364A126812F0020F61D0B1
:1018180033498A6822F0030213438B60FEF79AFE6D
:1018280006462F4B9B6803F00C036268B3EB820FEC
:1018380016D0FEF78FFE801B41F288339842F0D90C
:10184800032042E0264A126812F4003FE0D101204A
:101858003BE0234A126812F0007FD9D1012034E01E
:101868001E4B1B6803F00703AB4207D9EAB21B4BB8
:101878001A701B6803F00703AB422DD1236813F0DD
:10188800040F06D0164A936823F4E053E1680B432B
:101898009360236813F0080F07D0114A936823F464
:1018A8006043216943EAC1039360FFF71DFF0C4BB6
:1018B8009B68C3F303130B4AD35CD8400A4B1860E8
:1018C8000A4B1868FEF7FCFD002070BD0120704728
:1018D8000120FAE70120F8E70120F6E7003C024082
:1018E80000380240A45200084800002004000020EC
:1018F800014B1868704700BF4800002008B5FFF783
:10190800F7FF044B9B68C3F38223034AD35CD84098
:1019180008BD00BF00380240B452000808B5FFF700
:10192800E7FF044B9B68C3F34233034AD35CD840B8
:1019380008BD00BF00380240B452000810B5044684
:101948000268136923F44053C1680B431361836829
:1019580002691A4343691A43C3691A430168CB6889
:1019680023F4164323F00C031343CB600268536936
:1019780023F4407381690B4353610368314A9342EE
:1019880006D002F58062934202D0FFF7B7FF01E06C
:10199800FFF7C4FFE369B3F5004F29D0002103180E
:1019A80049411B1841F10001C90041EA5371DB00AC
:1019B800181863684FEA83024FEA937341F10001F4
:1019C800FEF706FC204AA2FB00314909642303FB09
:1019D80011031B013233A2FB03235B0903F0F0025E
:1019E80002EB011203F00F03216813448B6010BD52
:1019F8000023021843EB0301121841F10001C9004A
:101A080041EA5271D200101841F10001626892183F
:101A18005B41FEF7DDFB0C4AA2FB00314909642358
:101A280003FB1103DB003233A2FB03235B095A00DB
:101A380002F4F87202EB011203F007032168134461
:101A48008B60D4E7001001401F85EB512DE9F84366
:101A580005460F4616469946DDF820802B681C6817
:101A680037EA04040CBF01240024B4422DD1B8F194
:101A7800FF3FF3D0B8F1000F05D0FEF76BFDA0EBE8
:101A880009004045EAD92A6802F10C0353E8003FEF
:101A980023F4D0730C3242E800310029F3D12A68CC
:101AA80002F1140353E8003F23F00103143242E823
:101AB80000310029F3D1202385F83D3085F83E30E8
:101AC800002385F83C30032000E00020BDE8F883BF
:101AD80058B310B5044690F83D300BB3242384F86E
:101AE8003D302268D36823F40053D3602046FFF7C3
:101AF80025FF2268136923F4904313612268536910
:101B080023F02A0353612268D36843F40053D36057
:101B180000202064202384F83D3084F83E3010BD36
:101B280080F83C3000F0BAFED8E7012070472DE974
:101B3800F04182B01E4690F83D30DBB2202B54D1E4
:101B480004460D469046002953D0002A53D090F8F9
:101B58003C30012B51D0012380F83C300023036432
:101B6800212380F83D30FEF7F5FC0746A4F82480D1
:101B7800A4F82680A368B3F5805F05D04FF000086D
:101B8800002384F83C3012E0236913B14FF00008B9
:101B9800F6E7A8460025F3E738F8023B2268C3F3C6
:101BA80008035360E28C92B2013A92B2E284E38C69
:101BB8009BB273B100963B46002280212046FFF776
:101BC80045FFE0B9002DE7D015F8012B23685A60CE
:101BD800E8E700963B46002240212046FFF736FF03
:101BE80078B9202384F83D3000E0022002B0BDE837
:101BF800F0810120FAE70120F8E70220F6E7032048
:101C0800F4E70320F2E70000044B00225A609A60D0
:101C18002B2119735A7301229A7370470800002008
:101C280030B58BB000240594069407940894ADF859
:101C380024400094019402940394ADF81040184D88
:101C48000A2205A9686800F0A2FE0A226946A86867
:101C580000F09DFE204600F0F7FB2146204600F0EC
:101C68004BFD104C012394E8060005A800F02CFD5C
:101C780094E8030000F050FD012394E80600287B57
:101C880000F0B4FC94E8030000F046FD012394E85A
:101C98000600684600F018FD00F0E6FB0BB030BD0A
:101CA800080000204000002010B586B000240194F0
:101CB800029403940494ADF814400A2201A90C4B31
:101CC800586800F064FE204600F0BEFB214620461E
:101CD80000F012FD074A012306CA01A800F0F4FC2F
:101CE80000F0C2FB40F6B830FEF73AFC06B010BD73
:101CF8000800002040000020014B987B704700BF7F
:101D08000800002010B50446002000F09DFB0021CB
:101D1800084600F0F1FC064A012306CA204600F0F6
:101D2800D3FC00F0A1FB4FF47A70FEF719FC10BD4C
:101D38004000002008B52A38052809D8DFE800F057
:101D48000F03080908160F4B5A6899680A445A6025
:101D580008BD0C4B5A689968521A5A60F8E7094B43
:101D68005A68996801FB02F25A60F1E7054B9B68D3
:101D780023B104494A68B2FBF3F24A600248FFF70C
:101D8800C1FFE5E708000020D052000838B5044636
:101D9800A0F12303202B47D8DFE803F01C46464672
:101DA800464646111146111B1146464646464646CA
:101DB8004646464646253B46464646463800254D55
:101DC800287BFFF7B7FF2C730023AB6001226A73EF
:101DD8002B7038BD1F4A937BB3FA83F35B09937367
:101DE80000231370F5E71B4B5B7B3BB9194A53681B
:101DF8001949A1FB0313DB085360EAE7154A936806
:101E08001549A1FB0313DB089360E2E7FFF7FCFE2B
:101E1800DFE7104C207BFFF7B9FFFFF745FFFFF71F
:101E2800F3FE00232370D4E70A4B5B7B43B9094ACE
:101E3800536803EB830300EB4303303B5360C8E76D
:101E4800044A936803EB830300EB4304303C94603B
:101E5800BFE700BF08000020CDCCCCCC10B50020D7
:101E680000F0F2FA0021084600F046FC504C01232D
:101E780094E806004F4800F027FC94E8030000F0BF
:101E88004BFC012394E806004B4800F01DFC94E845
:101E9800030000F041FC012394E80600474800F0E5
:101EA80013FC94E8030000F037FC012394E80600D3
:101EB800434800F009FC94E8030000F02DFC0123DE
:101EC80094E806003F4800F0FFFB00F0CDFA40F62A
:101ED800B830FEF745FB002000F0B6FA00210846AE
:101EE80000F00AFC012394E80600374800F0ECFBF8
:101EF80094E8030000F010FC012394E8060033483E
:101F080000F0E2FB94E8030000F006FC012394E8EB
:101F180006002F4800F0D8FB94E8030000F0FCFB13
:101F2800012394E806002B4800F0CEFB94E8030058
:101F380000F0F2FB012394E80600274800F0C4FBF8
:101F480000F092FA40F6B830FEF70AFB002000F0E5
:101F58007BFA0021084600F0CFFB012394E8060035
:101F68001E4800F0B1FB94E8030000F0D5FB012304
:101F780094E806001A4800F0A7FB94E8030000F074
:101F8800CBFB012394E80600164800F09DFB94E87B
:101F9800030000F0C1FB012394E80600124800F09A
:101FA80093FB00F061FA40F6B830FEF7D9FA10BD9D
:101FB80040000020F05200080053000808530008B1
:101FC8001053000818530008205300083053000825
:101FD800385300084053000848530008505300087D
:101FE80064530008705300087C53000810B582B091
:101FF800204B01930024032CFCDC04F108036B4400
:1020080013F8040C00F00EF9012805D0022813D0AB
:10201800042820D00134EEE7FFF76EFE30B104EB60
:102028004404154B2344987802B010BD04EB4404D3
:10203800114B2344987BF7E7FFF75EFE28B104EBCA
:1020480044040D4B23445878EEE704EB44040A4B50
:102058002344587BE8E7FFF74FFE20B104EB440424
:10206800054B185DE0E704EB4404034B2344187B5D
:10207800DAE700BFFEFDFBF71800002030B58BB093
:102088000024059406940794089409940094234B1B
:102098001A6B42F080021A631A6B02F080020092F7
:1020A800009A01941A6B42F008021A631A6B02F044
:1020B80008020192019A02941A6B42F004021A6310
:1020C8001A6B02F004020292029A03941A6B42F00D
:1020D80001021A631A6B02F001020392039A049434
:1020E8001A6B42F002021A631B6B03F0020304939B
:1020F800049B0B4D22464FF460412846FEF7A4FB93
:102108004FF460430593012306930794089405A9A7
:102118002846FEF7A3FA0BB030BD00BF00380240D6
:10212800000C024008B50B480B4B03600B4B436097
:1021380000238360C3604FF480420261436183617E
:10214800C3610362FEF7D2FD00B908BD00F064F96F
:10215800FBE700BF7000002000540040A08601008B
:1021680030B589B00023039304930593069307932E
:102178000268154B9A4201D009B030BD002501957F
:10218800124C236B43F002032363236B03F0020317
:102198000193019B4FF4407303931223049301238B
:1021A8000593032306930423079303A90848FEF71E
:1021B80055FA0295236C43F400132364236C03F44B
:1021C80000130293029BD7E70054004000380240F6
:1021D8000004024010B582B000238DF807300DF1DD
:1021E80007020221E22000F0C9FA68B900238DF83D
:1021F80007300DF107020121E22000F0BFFA044682
:1022080038B9204602B010BD0446044800F0D0FAA0
:10221800F7E7034800F0CCFAF3E700BF9053000853
:10222800A853000810B582B00446FFF7D3FF08BBD7
:102238008DF807400DF107020321E22000F09EFA15
:10224800E0B90DF10701E22000F0ACFAD0B99DF831
:10225800073003F07000702833D013F0100F16D138
:10226800A4F1F702072A12D8DFE802F010111111C1
:1022780010111010154800F09BFAD9E7144800F027
:1022880097FADEE7134800F093FAE0E7042013F02A
:10229800200F0AD1A4F1F702072A06D8DFE802F0D6
:1022A8000405050504050404022013F0400F09D1B4
:1022B800F73C072C06D8DFE804F0070505050705F5
:1022C8000707002002B010BD0120FBE7BC5300083F
:1022D800D0530008E453000830B595B030220021EF
:1022E80008A800F099FB002403940494059406942C
:1022F800079401941C4B1A6C42F080521A641B6CB0
:1023080003F080530193019B0294184B1A6842F41E
:1023180080421A601B6803F480430293029B0123E6
:1023280008934FF48033099302250E954FF48003E8
:102338000F93192310934FF4A87311931295042344
:10234800139308A8FEF7D4FF0F230393049505946D
:102358004FF4A05306934FF480530793052103A825
:10236800FFF716FA15B030BD003802400070004083
:1023780010B5FEF7C9F8FFF7AFFFFFF77FFEFFF7CD
:10238800D1FE00F071FA00F097F8012000F05CF837
:102398001C4C002394E806001B4800F095F994E8CB
:1023A800030000F0B9F9002394E80600174800F08C
:1023B8008BF994E8030000F0AFF9002394E80600D5
:1023C800134800F081F994E8030000F0A5F9002310
:1023D80094E806000F4800F077F900F045F841F25C
:1023E8008830FEF7BDF8FFF739FDFFF719FCFFF756
:1023F800FDFDFFF7CBFCFFF713FC3220FEF7B0F82A
:10240800F3E700BF40000020F0530008FC53000829
:1024180008540008145400087047000000B587B03D
:102428008DF817000A230293012301930DF1170277
:102438000092002278210348FEF736FD07B05DF8C8
:1024480004FB00BF70000020002303E0FF21054AC1
:10245800D1540133B3F5806F03D20028F6D1014679
:10246800F5E77047C800002010B584B000241AE0D2
:10247800A4F15000C0B2FFF7D1FF0020FFF7CEFF54
:102488001020FFF7CBFF6423029380230193084BAE
:1024980003EBC41300930123402278210548FEF77B
:1024A80003FD0134E4B2072CE2D904B010BD00BF2B
:1024B800C80000207000002008B56420FEF750F81E
:1024C800AE20FFF7ABFF2020FFF7A8FF1020FFF793
:1024D800A5FFB020FFF7A2FFC820FFF79FFF00204D
:1024E800FFF79CFF1020FFF799FF4020FFF796FFAA
:1024F8008120FFF793FFFF20FFF790FFA120FFF750
:102508008DFFA620FFF78AFFA820FFF787FF3F204F
:10251800FFF784FFA420FFF781FFD320FFF77EFF9A
:102528000020FFF77BFFD520FFF778FFF020FFF7AB
:1025380075FFD920FFF772FF2220FFF76FFFDA201F
:10254800FFF76CFF1220FFF769FFDB20FFF766FF3C
:102558002020FFF763FF8D20FFF760FF1420FFF7AF
:102568005DFFAF20FFF75AFF0020FFF76DFFFFF771
:102578007BFF064B03F5806200200021C2E90001C1
:10258800C2E90201012083F8110408BDC800002037
:1025980010F0800F26D13F2924D810B4124B93F89D
:1025A800103413B1B2FA82F25209012A0FD0CB08C3
:1025B80000EBC3100C4C225C01F0070101238B4097
:1025C800DB435BB2134023545DF8044B7047CB08E0
:1025D80000EBC310044C235C01F007018A4013434D
:1025E8002354F1E7704700BFC80000202DE9F04FE1
:1025F80083B0824602A800E906009846304AD2F81D
:102608000034D2F804249DF800609B1942F10002BE
:10261800802B72F100024FDAB3462A4A9368D268D7
:102628009DF8019013EB090342F10002402B72F16F
:10263800000243DA002523E0214BD3F80004D3F845
:10264800081429442044B8FA88F25209C9B2C0B221
:10265800FFF79EFF0134A64211D907FA04F313F4D9
:10266800004FE9D0164BD3F80004D3F808142944D6
:1026780020444246C9B2C0B2FFF78AFFEAE70135F3
:10268800A94508D9AAF1200309FB0353019A32F896
:1026980013700024DFE70A49D1F80034D1F8042484
:1026A8001BEB030342F10002C1F80034C1F8042413
:1026B800504603B0BDE8F08F0020FAE70020F8E7A5
:1026C800C8000020C804002030B583B0044602A822
:1026D80000E906001D4600E00134207848B12B4689
:1026E80002AA12E90600FFF781FF0246207882421B
:1026F800F2D003B030BD000010B4064C0022C4F87C
:102708000004C4F80424C4F80814C4F80C245DF8C0
:10271800044B7047C800002000B583B002AB03E942
:1027280003000C4B9868DB689DF801104A0082187A
:1027380043F100033D2A73F1000302DB03B05DF8A7
:1027480004FB0144C9B20331C9B20020FFF7D4FF2A
:10275800F4E700BFC804002000B585B064230293E5
:102768000123019300920A4640EA03010248FEF75A
:102778004DFC05B05DF804FB7000002000B585B085
:1027880020F00100642302930123019300920A467A
:1027980001460348FEF788FB05B05DF804FB00BF5F
:1027A8007000002008B50A460021FFF7D5FF08BDD4
:1027B80010B50446FDF704FD4FF47A7382B2214642
:1027C8000148FFF7B4F910BDE004002082B00021F1
:1027D80000910B4B5A6C42F480425A645A6C02F4D2
:1027E80080420092009A01911A6C42F080521A6459
:1027F8001B6C03F080530193019B02B0704700BF2C
:10280800003802407047FEE7FEE7FEE7FEE7704744
:102818007047704708B5FDF791FE08BD0F49D1F81C
:10282800883043F47003C1F888300D4B1A6842F0C1
:1028380001021A60002098601A6822F0847222F45B
:1028480080321A60074A5A601A6822F480221A6095
:10285800D8604FF000638B60704700BF00ED00E068
:10286800003802401030002408B50A480A4B0360BB
:102878004FF4E133436000238360C36003610C229B
:1028880042618361C361FFF723F900B908BDFFF70F
:10289800C3FDFBE7E00400200014014000B589B047
:1028A8000023039304930593069307930268154B3B
:1028B8009A4202D009B05DF804FB0021019103F5AA
:1028C80092335A6C42F020025A645A6C02F0200289
:1028D8000192019A02911A6B42F004021A631B6B6F
:1028E80003F004030293029BC0230393022304937F
:1028F800032306930823079303A90348FDF7AEFEB5
:10290800D8E700BF0014014000080240DFF834D0C7
:10291800002103E00C4B5B58435004310B480C4B2F
:1029280042189A42F6D30B4A02E0002342F8043BCD
:10293800094B9A42F9D3FFF771FF00F075F8FFF7DA
:1029480017FD704700000220DC540008000000203A
:102958004C0000205000002024050020FEE7931EB4
:10296800222B10B50C4604D900230B701C462046B8
:1029780010BD0A2A09D1002807DA2D230B7040421E
:102988000121214400F006F8F1E70021F9E7FFF7FB
:10299800E6BF0000F0B51F4C8BB005460B466E46EF
:1029A80004F1200C20686168374603C70834644581
:1029B8003E46F7D121793971911E20683860222965
:1029C8004FF0000104D919700B4618460BB0F0BD42
:1029D800581E8446B5FBF2F702FB175628366E449C
:1029E8000C4616F8286C0CF8016F2E46B24201F11D
:1029F80001013D46EED900225A541919A51AAA42D6
:102A0800E3DA10F8015F0E780670013201F8015917
:102A1800F4E700BFA554000802440346934200D1DE
:102A2800704703F8011BF9E770B50D4D0D4C641B99
:102A3800A4100026A64209D10B4D0C4C00F018F842
:102A4800641BA4100026A64205D170BD55F8043BAE
:102A580098470136EEE755F8043B98470136F2E708
:102A6800D4540008D4540008D4540008D85400089A
:102A7800F8B500BFF8BC08BC9E467047F8B500BF63
:082A8800F8BC08BC9E46704733
:102A90000000000000000000000000000000000036
:102AA0000000000000000000000000000000000026
:102AB0000000000000000000000000000000000016
:102AC00000000000E003E003E003E003E003E003B4
:102AD000E003E003C003C003C001C001C001C001A6
:102AE000C001000000000000E003E003E00300007C
:102AF00000000000000000003C1E3C1E3C1E3C1E6E
:102B00003C1E3C1E3C1E00000000000000000000B7
:102B100000000000000000000000000000000000B5
:102B2000000000000000000000000000CE01CE0305
:102B3000DE039E039C039C07FF3FFF7F3807380F8F
:102B4000780F780F780EFFFFFFFFF01EF01CE01CDF
:102B5000E03CE03DE0390000000000000000000023
:102B6000FC03FE0FEE1FE01EE01EE01EE01EE01F55
:102B7000E00FE007F003FC01FE01FE01FE01FE0193
:102B8000FE01FE01FE3DFC3FF00FE001E001000010
:102B900000000000033E07F78FE78EE79EE3BCE3EB
:102BA000B8E7F8E7F0F7E03FC001FF03FF07F307DE
:102BB000F30FF31EF33CF338F3787FF03FE00000AF
:102BC0000000000000000000E007F80F780F781FF9
:102BD000781F781F780FF00FE00F801FC37FC3FBB3
:102BE000E7F3F7F1F7F0FFF07FF03EF87F7CFF3F6F
:102BF000EF1F00000000000000000000E003E00301
:102C0000E003E003E003C003C00100000000000097
:102C100000000000000000000000000000000000B4
:102C200000000000000000000000000000000000A4
:102C30003F007C00F001E001C003C007800780076F
:102C4000800F000F000F000F000F000F000F800F0C
:102C500080078007C007C003E001F0017C003F004F
:102C60000F000000007E001FC007C003E001F0015C
:102C7000F000F000F8007800780078007800780024
:102C80007800F800F000F000F001E001C003C00798
:102C9000001F007E00780000E003C003C001CE39B1
:102CA000FF3F7F3F20037003F807780F3C1F380673
:102CB0000000000000000000000000000000000014
:102CC0000000000000000000000000000000000004
:102CD0000000000000000000C001C001C001C001F0
:102CE000C001C001C001FFFFFFFFC001C001C00162
:102CF000C001C001C0010000000000000000000091
:102D000000000000000000000000000000000000C3
:102D100000000000000000000000000000000000B3
:102D20000000E003E003E003E003E001E001E00174
:102D3000C00180030000000000000000000000004F
:102D400000000000000000000000FE3FFE3F000009
:102D50000000000000000000000000000000000073
:102D60000000000000000000000000000000000063
:102D70000000000000000000000000000000000053
:102D800000000000000000000000E003E003E0039A
:102D9000E003000000000000000000000F000F0032
:102DA0001E001E003C003C0078007800F000F0009F
:102DB000E001E001C003C00380078007000F000F9F
:102DC000001E001E003C003C0078007800F000006F
:102DD000F007F80F7C1F3E3E1E3C1F7C1F7C0F78C7
:102DE0000F780F780F780F780F780F781F7C1F7C83
:102DF0001E3C3E3E7C1FF80FF00700000000000064
:102E000000000000F000F007F03FF03FF001F0019B
:102E1000F001F001F001F001F001F001F001F0012A
:102E2000F001F001F001F001F001FF3FFF3F000071
:102E30000000000000000000E00FF83F7C3C3C0078
:102E40003E003E003E003C003C007C00F800F001EB
:102E5000E003C0078007000F001E003E003CFE3F5D
:102E6000FE3F00000000000000000000F00FF81F0F
:102E70007C1C3E003E003E003C003C00F800F00F91
:102E8000F80F7C003E001E001E001E001E003E00CB
:102E90007C1CF81FE01F0000000000000000000084
:102EA0007800F800F800F801F803F807F807780F41
:102EB000781E781E783C78787878FFFFFFFF7800DE
:102EC00078007800780078007800000000000000AA
:102ED00000000000FC1FFC1FFC1F001E001E001E47
:102EE000001E001EE01FF81FFC007C003E003E009C
:102EF0001E003E003E003C007C1CF81FE01F00004E
:102F00000000000000000000FC01FE078E0F001F03
:102F1000001E003E003C003CF83DFC3F3E7F1F7E13
:102F20000F3C0F3C0F3C0F3C0F3E1F1E3E1FFC0F83
:102F3000F00300000000000000000000FF3FFF3F22
:102F4000FF3F0F001E001E003C0038007800F0001C
:102F5000F000E001E001C003C0038007800F800F94
:102F6000000F001F001F0000000000000000000014
:102F7000F807FC0F3E1F1E1E1E3E1E3E1E1E3C1F5F
:102F8000F80FF007F80FFC1E3E3E1F3C1F7C0F7C25
:102F90000F7C1F3C3E3FFC1FF007000000000000BC
:102FA00000000000F007F80F7C1E3E3C1E3C1F7C1A
:102FB0001F7C1F7C1F7C1F3C3F3EFF1FEF071F0035
:102FC0001E001E003E003C00F838F03FE01F0000ED
:102FD00000000000000000000000000000000000F1
:102FE00000000000E003E003E003E0030000000055
:102FF00000000000000000000000E003E003E00328
:10300000E0030000000000000000000000000000DD
:103010000000000000000000E003E003E003E00324
:103020000000000000000000000000000000E003BD
:10303000E003E003E003E001E001E001C0038003FE
:1030400000000000000000000000000003000F006E
:103050003F00FC00F003C00F003F00FE003FC00F28
:10306000F003FC003F000F00030000000000000020
:103070000000000000000000000000000000000050
:103080000000000000000000FFFFFFFF0000000044
:103090000000FFFFFFFF0000000000000000000034
:1030A0000000000000000000000000000000000020
:1030B0000000000000E000F8007E801FE007F8013B
:1030C0007E001F007E00F801E007801F007E00F8F0
:1030D00000E000000000000000000000F01FFC3FC6
:1030E0003E381F381F381E001E003C007800F000DC
:1030F000E001C003C003C007C007000000000000DB
:10310000C007C007C007000000000000000000006A
:10311000F803FE0F1E1F0F3E7F3CFF78EF79C77349
:10312000C7F38FF38FF38FF39FF39FF3FF73FF7B4F
:10313000F779003C1C1FFC0FF803000000000000A2
:1031400000000000000000000000E003E003F007C2
:10315000F007F007780F780F7C0E3C1E3C1E3E3CBB
:10316000FE3FFF3F1F780F780FF007F007F00000D9
:103170000000000000000000000000000000F83F18
:10318000FC3F3E3C1E3C1E3C1E3C3E3C7C3CF03F1B
:10319000F83F7E3C1F3C1F3C0F3C0F3C1F3CFE3F5A
:1031A000F83F0000000000000000000000000000E8
:1031B0000000FF01FF07871F003E003C007C0078F5
:1031C0000078007800780078007C007C003E003FAA
:1031D000831FFF07FF010000000000000000000047
:1031E000000000000000F07FFC7F7E781F781F78D1
:1031F0000F780F780F780F780F780F780F780F7897
:103200001F781E787E78F87FE07F000000000000C5
:1032100000000000000000000000FF3FFF3F003EF4
:10322000003E003E003E003E003EFE3FFE3F003EB0
:10323000003E003E003E003E003EFF3FFF3F0000DC
:103240000000000000000000000000000000FF1F60
:10325000FF1F001E001E001E001E001E001EFF1F7E
:10326000FF1F001E001E001E001E001E001E001E6E
:10327000001E000000000000000000000000000030
:103280000000FE03FF0F871F003E007C007C0078DB
:1032900000F800F87FF87FF80F780F7C0F7C0F3E66
:1032A0008F1FFF0FFE030000000000000000000061
:1032B0000000000000001F7C1F7C1F7C1F7C1F7C07
:1032C0001F7C1F7C1F7CFF7FFF7F1F7C1F7C1F7C60
:1032D0001F7C1F7C1F7C1F7C1F7C000000000000E7
:1032E00000000000000000000000FF3FFF3FE0037F
:1032F000E003E003E003E003E003E003E003E003B6
:10330000E003E003E003E003E003FF3FFF3F0000D2
:103310000000000000000000000000000000FC1F92
:10332000FC1F7C007C007C007C007C007C007C001E
:103330007C007C007C007C0078007800F838F03F4E
:10334000C03F00000000000000000000000000007E
:1033500000001F3C1E3C3C3C783CF03CE03DE03F24
:10336000C03F803FC03FE03FF03DF03C783C7C3CBC
:103370003E3C1F3C0F3C000000000000000000002D
:10338000000000000000003E003E003E003E003E07
:10339000003E003E003E003E003E003E003E003E3D
:1033A000003E003E003EFF3FFF3F000000000000E7
:1033B000000000000000000000001FF81FFC1FFCC0
:1033C0003FFE3FFE3FFE7FFF77FF77FFF7F7E7F710
:1033D000E7F3E7F3C7F307F007F007F007F00000A3
:1033E00000000000000000000000000000000F7C52
:1033F0000F7C0F7E0F7F0F7F8F7F8F7FCF7FEF7BC5
:10340000EF79FF79FF78FF787F783F783F781F78F2
:103410001F78000000000000000000000000000015
:103420000000F007FC1F3E3E1F7C0F780F780FF85E
:103430000FF80FF80FF80FF80FF80F780F781F7CC0
:103440003E3EFC1FF00700000000000000000000EE
:10345000000000000000FC3FFF3F1F3E0F3E0F3EFC
:103460000F3E0F3E1F3E3F3EFC3FF03F003E003E02
:10347000003E003E003E003E003E00000000000016
:1034800000000000000000000000F007FC1F3E3EAE
:103490001F7C0F780F780FF80FF80FF80FF80FF860
:1034A0000FF80F780F781F7C3E3EFC1FF8077C005A
:1034B0003F000F0003000000000000000000F03F8C
:1034C000FC3F7E3C3E3C1E3C1E3C3E3C3C3CFC3CAF
:1034D000F03FE03FF03DF83C7C3C3E3C1E3C1F3C56
:1034E0000F3C000000000000000000000000000091
:1034F0000000FC07FE1F0E3E003C003C003C003E6E
:10350000C01FF80FFE037F001F000F000F001F20D9
:103510003E3CFC3FF01F00000000000000000000E7
:10352000000000000000FFFFFFFFE003E003E003F6
:10353000E003E003E003E003E003E003E003E00373
:10354000E003E003E003E003E0030000000000000C
:10355000000000000000000000000F7C0F7C0F7CCA
:103560000F7C0F7C0F7C0F7C0F7C0F7C0F7C0F7C03
:103570000F7C0F7C1E3C1E3C3E3EFC1FF0070000F3
:10358000000000000000000000000000000007F044
:1035900007F007F80F780F7C1E3C1E3C1E3E3C1EB9
:1035A0003C1F781F780FF80FF007F007F007E003D3
:1035B000E003000000000000000000000000000028
:1035C000000003E003F003F007F0E7F3E7F3E7F3AD
:1035D000E773F77BF77FFF7F7F7F7F7F7E7F7E3F75
:1035E0003E3E3E3E3E3E0000000000000000000067
:1035F00000000000000007F80F7C1E3E3E3E3C1F0E
:10360000F80FF007E007E003E003F007F80F7C0F86
:103610007C1E3E3C1F780F780FF000000000000079
:103620000000000000000000000007F807780F7C91
:103630001E3C1E3E3C1F780FF80FF007E003E0032E
:10364000E003E003E003E003E003E003E003000045
:103650000000000000000000000000000000FF7FEC
:10366000FF7F0F001F003E007C00F800F000E0012B
:10367000E003C007800F000F001E003E007CFF7FAC
:10368000FF7F00000000000000000000FF0780072F
:1036900080078007800780078007800780078007F2
:1036A00080078007800780078007800780078007E2
:1036B00080078007800780078007FF07FF0700005B
:1036C00000780078003C003C001E001E000F000F38
:1036D00080078007C003C003E001E001F000F000B4
:1036E000780078003C003C001E001E000F000F0018
:1036F00007000000F07FF000F000F000F000F000A4
:10370000F000F000F000F000F000F000F000F00039
:10371000F000F000F000F000F000F000F000F00029
:10372000F000F07FF07F0000C000C001C001E003A6
:10373000E003F007F0077807780F380F3C1E3C1EB7
:103740001E3C1E3C0F380F78077800000000000078
:103750000000000000000000000000000000000069
:103760000000000000000000000000000000000059
:103770000000000000000000000000000000000049
:10378000000000000000FFFFFFFF0000000000003D
:10379000F000000000000000000000000000000039
:1037A0000000000000000000000000000000000019
:1037B0000000000000000000000000000000000009
:1037C00000000000000000000000000000000000F9
:1037D000F80FFC3F7C3C3E003E003E00FE07FE1F13
:1037E0003E3E3E7C3E783E7C7E7CFF3FCF1F00000D
:1037F0000000000000000000003C003C003C003CD9
:10380000003C003CF83DFE3F3E3F1F3E0F3C0F3C5E
:103810000F3C0F3C0F3C0F3C1F3C1E3C3E3FFC3F0F
:10382000F03B00000000000000000000000000006D
:103830000000000000000000FE03FF0F871F003E95
:10384000003E003C007C007C007C003C003E003ED2
:10385000871FFF0FFE0300000000000000000000B3
:103860001F001F001F001F001F001F00FF07FF1F7A
:103870003F3E1F3C1F7C1F7C1F7C1F781F781F7CD6
:103880001F7C3F3C7F3EFF1FDF0F00000000000059
:103890000000000000000000000000000000000028
:1038A000F803FC0F3E1F1E3E1F3C1F7CFF7FFF7F67
:1038B000007C007C003C003E071FFF0FFE03000061
:1038C0000000000000000000FF01E103C003C0078A
:1038D000C007C007FF7FFF7FC007C007C007C00742
:1038E000C007C007C007C007C007C007C007C007A0
:1038F000C007000000000000000000000000000001
:103900000000000000000000EF07FF1F7F3E1F3C8B
:103910001F7C1F7C1F781F781F781F7C1F7C3F3CFB
:103920007F3EFF1FDF0F1E001E001E007C38F83F89
:10393000003C003C003C003C003C003CFC3DFE3FA9
:103940009E3F1F3F1F3E1F3C1F3C1F3C1F3C1F3C18
:103950001F3C1F3C1F3C1F3C1F3C000000000000A0
:1039600000000000F001F001000000000000000075
:10397000E07FE07FE001E001E001E001E001E00143
:10398000E001E001E001E001E001E001E001000010
:103990000000000000000000F800F8000000000037
:1039A00000000000F83FF83FF800F800F800F800C9
:1039B000F800F800F800F800F800F800F800F80047
:1039C000F800F800F800F000F071E07F003C003CE7
:1039D000003C003C003C003C1F3C3E3C7C3CF83C36
:1039E000F03DE03DC03FC03FE03FF03DF83C7C3C57
:1039F0003E3C1F3C1F3C0000000000000000000097
:103A0000F07FF001F001F001F001F001F001F001B0
:103A1000F001F001F001F001F001F001F001F0011E
:103A2000F001F001F001F001F001000000000000E1
:103A30000000000000000000000000000000000086
:103A40009EF7FFFFFFFFFFFFE7FBE7F9C7F1C7F1B5
:103A5000C7F1C7F1C7F1C7F1C7F1C7F1C7F100005E
:103A60000000000000000000000000000000000056
:103A700000000000FC3DFE3F9E3F1F3F1F3E1F3CDD
:103A80001F3C1F3C1F3C1F3C1F3C1F3C1F3C1F3C5E
:103A90001F3C0000000000000000000000000000CB
:103AA0000000000000000000F007FC1F3E3E1F3C2D
:103AB0001F7C0F780F780F780F780F781F7C1F3CD2
:103AC0003E3EFC1FF0070000000000000000000068
:103AD000000000000000000000000000F83DFE3F74
:103AE0003E3F1F3E0F3C0F3C0F3C0F3C0F3C0F3C3A
:103AF0001F3C1E3E3E3FFC3FF83F003C003C003C6C
:103B0000003C003C0000000000000000000000003D
:103B1000EE07FE1F7E3E1E3C1E7C1E781E781E7821
:103B20001E781E781E7C3E7C7E3EFE1FDE0F1E0031
:103B30001E001E001E001E0000000000000000000D
:103B4000000000007F1FFF1FE71FC71F871F001F08
:103B5000001F001F001F001F001F001F001F001F6D
:103B6000001F000000000000000000000000000036
:103B70000000000000000000FC07FE1F0E1E003EBB
:103B8000003E003FE01FFC07FE003E001E001E003E
:103B90003E3CFC3FF01F0000000000000000000061
:103BA000000000000000800780078007FF7FFF7F84
:103BB00080078007800780078007800780078007CD
:103BC00080078007C007FF03FF010000000000001E
:103BD00000000000000000000000000000000000E5
:103BE0001E3C1E3C1E3C1E3C1E3C1E3C1E3C1E3C05
:103BF0001E3C1E3C3E3C7E3CFE3EFE1FDE0F000097
:103C000000000000000000000000000000000000B4
:103C10000000000007F00F780F781E3C1E3C1E3E8F
:103C20003C1E3C1E780F780FF00FF007F007E00302
:103C3000E0030000000000000000000000000000A1
:103C4000000000000000000003F0E3F1E3F3E7F3FD
:103C5000F7F3F7F3F77F777F7F7F7F7F7F7F3E3EAE
:103C60003E3E3E3E3E3E00000000000000000000E0
:103C70000000000000000000000000000F7C1E3E5D
:103C80003C3E3C1FF80FF007F007E003F007F80791
:103C9000F80F7C1E3E3E1F3C1F7800000000000015
:103CA0000000000000000000000000000000000014
:103CB00007F80F780F7C1E3C1E3C3C1E3C1E3C1F30
:103CC000780FF80FF007F007E003E003C003C0032C
:103CD000C0038007800F007F00000000000000008C
:103CE00000000000FF3FFF3F1F003E007C00F80087
:103CF000F001E003C007800F001F001E003CFF7FA3
:103D0000FF7F00000000000000000000FE01E00353
:103D1000C003C003C003C003E001E001E001C00133
:103D2000C003803F803FC003C001E001E001E0012B
:103D3000C003C003C003C003E003FE017E00000017
:103D4000C001C001C001C001C001C001C001C0016B
:103D5000C001C001C001C001C001C001C001C0015B
:103D6000C001C001C001C001C001C001C001C0014B
:103D7000C0010000C03FE003E001E001E001E0011C
:103D8000C001C003C003C001E001FE00FE00E0016D
:103D9000C001C003C003C001E001E001E001E00197
:103DA000E003C03F003F00000000000000000000F2
:103DB0000000000000000000000000000000073FBD
:103DC000C77FE773FFF17EF00000000000000000F5
:103DD00000000000000000000000000000000000E3
:103DE00000000000000000000000000000000000D3
:103DF00000000000000000000000000000000000C3
:103E00000000000C000C000C000C000C000C000C5E
:103E1000000C000C000C000C0000000C000C00005A
:103E2000000000000000001B001B001B001B001B0B
:103E30000000000000000000000000000000000082
:103E400000000000000000000000801980198019A7
:103E50008019C07FC07F80190033C07FC07F0033CE
:103E60000033003300330000000000000000001E9B
:103E7000003F807580650074003C001E00078005CF
:103E8000806580658075003F001E0004000400000E
:103E90000000007000D840D8C0D880D90073000658
:103EA000000C801BC036C066C046C0068003000000
:103EB000000000000000001E003F0033003300330C
:103EC000001E000CC03CC066806380618063C03E01
:103ED000801C0000000000000000000C000C000C22
:103EE000000C000C000000000000000000000000BA
:103EF0000000000000000000000000008000000141
:103F00000003000600060004000C000C000C000C6E
:103F1000000C000C000400060006000300018000F5
:103F2000002000100018000C000C00040006000621
:103F300000060006000600060004000C000C001835
:103F4000001000200000000C002D003F001E003378
:103F50000000000000000000000000000000000061
:103F60000000000000000000000000000000000C45
:103F7000000C000C000CC0FFC0FF000C000C000C7B
:103F8000000C000000000000000000000000000025
:103F90000000000000000000000000000000000021
:103FA000000000000000000C000C000400040008E9
:103FB0000000000000000000000000000000000001
:103FC0000000001E001E00000000000000000000B5
:103FD00000000000000000000000000000000000E1
:103FE0000000000000000000000000000000000CC5
:103FF000000C0000000000000000000300030003AC
:104000000006000600060006000C000C000C000C68
:104010000018001800180000000000000000001E3A
:10402000003F0033806180618061806D806D8061C0
:10403000806180610033003F001E0000000000002E
:1040400000000006000E001E0036002600060006D6
:104050000006000600060006000600060006000036
:10406000000000000000001E003F8073806180613E
:10407000800100030006000C001800300060807F03
:10408000807F0000000000000000001C003E006374
:1040900000630003000E000E0003800180018061B8
:1040A0008073003F001E00000000000000000006BA
:1040B000000E000E001E001E0016003600360066C0
:1040C000807F807F000600060006000000000000E0
:1040D0000000007F007F006000600060006E007FD5
:1040E00080638001800180618073003F001E0000BA
:1040F000000000000000001E003F8033806100606F
:10410000006E007F80738061806180618033003F3A
:10411000001E0000000000000000807F807F800102
:104120000003000300060006000C000C000C000851
:104130000018001800180000000000000000001E19
:10414000003F8063806180610021001E003F80612C
:10415000806180618061003F001E0000000000005F
:104160000000001E003F00738061806180618073E9
:10417000803F801D800180610073003F001E0000B1
:104180000000000000000000000000000000000C23
:10419000000C000000000000000000000000000C07
:1041A000000C000000000000000000000000000003
:1041B00000000000000C000C0000000000000000E7
:1041C0000000000C000C00040004000800000000C7
:1041D0000000000080008003000E003800600038FE
:1041E000000E8003800000000000000000000000BE
:1041F00000000000000000000000807F807F0000C1
:104200000000807F807F00000000000000000000B0
:1042100000000000000000000000000000400070EE
:10422000001C000780010007001C00700040000017
:1042300000000000000000000000001F803FC0716F
:10424000C060C000C00180030007000E000C000C1D
:104250000000000C000C0000000000000000001E28
:10426000003F803180718063806F806D806D806FD2
:10427000806700600032003E001C0000000000006B
:104280000000000E000E001B001B001B001B8031F5
:104290008031803F803F8031C060C060C0600000DE
:1042A000000000000000007C007E006300630063EB
:1042B0000063007E007E0063806180618063007F18
:1042C000007E0000000000000000001E003F803162
:1042D00080610060006000600060006000608061DC
:1042E0008031003F001E0000000000000000007C44
:1042F000007F006380638061806180618061806194
:10430000806100630063007E007C0000000000000C
:104310000000807F807F0060006000600060007FA0
:10432000007F0060006000600060807F807F000090
:10433000000000000000807F807F0060006000605F
:104340000060007F007F006000600060006000602F
:1043500000600000000000000000001E003F8031EF
:1043600080610060006000608063806380618061C4
:104370008031803F001E00000000000000008061CE
:1043800080618061806180618061807F807F8061E9
:1043900080618061806180618061000000000000B8
:1043A0000000003F003F000C000C000C000C000C53
:1043B000000C000C000C000C000C003F003F000043
:1043C0000000000000008001800180018001800168
:1043D0008001800180018001806180618073003FE5
:1043E000001E0000000000000000C060806100634B
:1043F00000660066006C0078007C00660066006362
:1044000080618061C060000000000000000000606A
:10441000006000600060006000600060006000609C
:10442000006000600060807F807F0000000000006E
:104430000000C071C071C07BC07AC06AC06AC06E23
:10444000C064C060C060C060C060C060C060000088
:10445000000000000000807180718079807980798F
:10446000806D806D806D8065806780678067806308
:1044700080630000000000000000001E003F0033C9
:104480008061806180618061806180618061806124
:104490000033003F001E0000000000000000007E0E
:1044A000007F80638061806180618063007F007E27
:1044B000006000600060006000600000000000001C
:1044C0000000001E003F00338061806180618061D8
:1044D00080618061806580670033803F401E0000FE
:1044E000000000000000007E007F8063806180612A
:1044F0008063007F007E00660063006380618061EE
:10450000C0600000000000000000000E001F8031AD
:10451000803100300038001E000780038061806118
:104520008031003F001E0000000000000000C0FFBE
:10453000C0FF000C000C000C000C000C000C000C68
:10454000000C000C000C000C000C0000000000002F
:104550000000806180618061806180618061806134
:1045600080618061806180618073003F001E000077
:10457000000000000000C060C060C0608031803179
:104580008031001B001B001B001B000E000E000EE4
:1045900000040000000000000000C0C0C0C0C0C097
:1045A000C0C0C0C0C0CC804C804C805E8052805265
:1045B0008073806180610000000000000000C0C0C6
:1045C000806080610033003B001E000C000C001E68
:1045D000001F003B80718061C0C00000000000002F
:1045E0000000C0C08061806100330033001E001EE7
:1045F000000C000C000C000C000C000C000C000067
:10460000000000000000803F803F800100030003A5
:104610000006000C000C0018001800300060807FBD
:10462000807F000000000000000F000F000C000C55
:10463000000C000C000C000C000C000C000C000C1A
:10464000000C000C000C000C000F000F0000001804
:1046500000180018000C000C000C000C00060006EE
:104660000006000600030003000300000000000035
:10467000001E001E000600060006000600060006DA
:1046800000060006000600060006000600060006FA
:10469000001E001E0000000C000C001E0012003363
:1046A0000033806180610000000000000000000015
:1046B00000000000000000000000000000000000FA
:1046C00000000000000000000000000000000000EA
:1046D0000000000000000000E0FF000000000038C3
:1046E0000018000C000000000000000000000000A6
:1046F00000000000000000000000000000000000BA
:1047000000000000000000000000001F803F8061EA
:104710008001801F803F80618063807FC0380000FF
:104720000000000000000060006000600060006E9B
:10473000007F807380618061806180618073007F11
:10474000006E0000000000000000000000000000FB
:104750000000001E003F8073806100600060806187
:104760008073003F001E0000000000000000800178
:10477000800180018001801D803F807380618061A5
:10478000806180618073803F801D00000000000018
:1047900000000000000000000000001E003F007349
:1047A0008061807F807F00608071003F001E00007C
:1047B000000000000000C007C00F000C000C807F4C
:1047C000807F000C000C000C000C000C000C000C96
:1047D000000C0000000000000000000000000000CD
:1047E000801D803F80738061806180618061807303
:1047F000803F801D80018063007F003E00000060DC
:10480000006000600060006F807F80718061806167
:104810008061806180618061806100000000000033
:1048200000000006000600000000003E003E0006FA
:10483000000600060006000600060006000600004E
:10484000000000000006000600000000003E003EE0
:104850000006000600060006000600060006000628
:1048600000060046007E003C000000600060006022
:104870000060806100630066006C007C007600636D
:1048800000638061C0600000000000000000003E86
:10489000003E0006000600060006000600060006B0
:1048A00000060006000600060006000000000000EA
:1048B0000000000000000000000080DDC0FFC0CE4E
:1048C000C0CCC0CCC0CCC0CCC0CCC0CCC0CC000014
:1048D0000000000000000000000000000000006F69
:1048E000807F807180618061806180618061806192
:1048F00080610000000000000000000000000000D7
:104900000000001E003F80738061806180618061D3
:104910008073003F001E0000000000000000000047
:1049200000000000006E007F807380618061806104
:1049300080618073007F006E006000600060006036
:104940000000000000000000801D803F8073806137
:104950008061806180618073803F801D8001800163
:1049600080018001000000000000000000000067DE
:10497000803F00390030003000300030003000301F
:1049800000300000000000000000000000000000F7
:104990000000001E803F80610060007F803F80013A
:1049A0008061007F001E0000000000000000000089
:1049B000000800180018007F007F00180018001879
:1049C000001800180018801F800F00000000000071
:1049D0000000000000000000000080618061806134
:1049E00080618061806180618063807F803D0000A4
:1049F0000000000000000000000000000000C06097
:104A0000803180318031001B001B001B000E000E26
:104A10000006000000000000000000000000000090
:104A2000000080DD80DD80DD0055005500550077F9
:104A300000770022002200000000000000000000BB
:104A4000000000000000806100330033001E000CF5
:104A5000000C001E003300338061000000000000E5
:104A600000000000000000008061806180310033A0
:104A70000033001B001B001B000E000E000E001C6C
:104A8000007C007000000000000000000000C07FFB
:104A9000C07F800100030006000C00180030C07FBA
:104AA000C07F0000000000008003800700060006B1
:104AB000000600060006000E001C001C000E00068A
:104AC00000060006000600068007800300060006B8
:104AD00000060006000600060006000600060006A6
:104AE0000006000600060006000600060006000696
:104AF0000038003C000C000C000C000C000C000EF8
:104B000000070007000E000C000C000C000C000C4D
:104B1000003C003800000000000000000000000021
:104B200000008038807F0047000000000000000087
:104B30000000000000000000000000000000000075
:104B40000000000000000000000000000010001045
:104B50000010001000100010000000100000000005
:104B600000280028002800000000000000000000CD
:104B70000000000000240024007C00240048007C89
:104B80000048004800000000003800540050003881
:104B9000001400540054003800100000002000549D
:104BA00000580030002800540014000800000000E5
:104BB000001000280028001000340048004800348D
:104BC00000000000001000100010000000000000B5
:104BD000000000000000000000080010002000207D
:104BE00000200020002000200010000800200010FD
:104BF0000008000800080008000800080010002055
:104C00000010003800100028000000000000000024
:104C1000000000000000000000100010007C0010E8
:104C20000010000000000000000000000000000074
:104C30000000000000000010001000100000000044
:104C4000000000000000003800000000000000002C
:104C50000000000000000000000000000000001044
:104C600000000000000800080010001000100010F4
:104C700000200020000000000038004400440054E0
:104C800000440044004400380000000000100030E0
:104C90000050001000100010001000100000000074
:104CA0000038004400440004000800100020007C8C
:104CB0000000000000380044000400180004000454
:104CC00000440038000000000008001800280028F8
:104CD0000048007C0008000800000000007C004044
:104CE0000040007800040004004400380000000088
:104CF000003800440040007800440044004400387C
:104D000000000000007C00040008001000100020DB
:104D1000002000200000000000380044004400385B
:104D20000044004400440038000000000038004403
:104D300000440044003C000400440038000000002F
:104D40000000000000100000000000000000001043
:104D50000000000000000000000000100000000043
:104D6000000000100010001000000000000C0030D7
:104D700000400030000C00000000000000000000B7
:104D80000000007C0000007C00000000000000002B
:104D9000000000000060001800040018006000001F
:104DA000000000000038004400040008001000105B
:104DB000000000100000000000380044004C0054C7
:104DC000005C004000400038000000000010002897
:104DD000002800280028007C004400440000000057
:104DE0000078004400440078004400440044007807
:104DF0000000000000380044004000400040004037
:104E000000440038000000000070004800440044E6
:104E1000004400440048007000000000007C004096
:104E20000040007C004000400040007C000000008A
:104E3000007C0040004000780040004000400040FE
:104E4000000000000038004400400040005C0044C6
:104E50000044003800000000004400440044007C8E
:104E600000440044004400440000000000380010EA
:104E700000100010001000100010003800000000AA
:104E8000000400040004000400040004004400388E
:104E9000000000000044004800500060005000483E
:104EA0000048004400000000004000400040004076
:104EB000004000400040007C000000000044006C06
:104EC000006C005400440044004400440000000012
:104ED00000440064006400540054004C004C004442
:104EE0000000000000380044004400440044004436
:104EF00000440038000000000078004400440044F2
:104F000000780040004000400000000000380044ED
:104F100000440044004400440054003800040000F1
:104F200000780044004400440078004800480044F1
:104F30000000000000380044004000300008000479
:104F40000044003800000000007C00100010001039
:104F50000010001000100010000000000044004489
:104F600000440044004400440044003800000000B5
:104F700000440044004400280028002800100010CD
:104F80000000000000440044005400540054006C31
:104F9000002800280000000000440028002800101D
:104FA00000100028002800440000000000440044D5
:104FB0000028002800100010001000100000000061
:104FC000007C000400080010001000200040007C5D
:104FD0000000000000180010001000100010001069
:104FE0000010001000100018002000200010001019
:104FF0000010001000080008000000000030001041
:105000000010001000100010001000100010003000
:1050100000100028002800440000000000000000EC
:105020000000000000000000000000000000000080
:1050300000000000000000FE002000100000000042
:105040000000000000000000000000000000000060
:1050500000380044003C0044004C003400000000D4
:1050600000400040005800640044004400640058C0
:105070000000000000000000003800440040004034
:105080000044003800000000000400040034004C1C
:1050900000440044004C0034000000000000000008
:1050A00000380044007C004000440038000000004C
:1050B000000C0010007C0010001000100010001008
:1050C00000000000000000000034004C00440044D8
:1050D000004C003400040078004000400058006498
:1050E00000440044004400440000000000100000A0
:1050F00000700010001000100010001000000000F0
:1051000000100000007000100010001000100010CF
:10511000001000E0004000400048005000600050D7
:105120000048004400000000007000100010001053
:10513000001000100010001000000000000000002F
:105140000078005400540054005400540000000043
:105150000000000000580064004400440044004483
:10516000000000000000000000380044004400443B
:1051700000440038000000000000000000580064F7
:10518000004400440064005800400040000000005B
:105190000034004C00440044004C0034000400047F
:1051A0000000000000580064004000400040004043
:1051B000000000000000000000380044003000083B
:1051C000004400380000000000200020007800208B
:1051D0000020002000200018000000000000000057
:1051E0000044004400440044004C0034000000002F
:1051F000000000000044004400280028002800109F
:105200000000000000000000005400540054006C36
:1052100000280028000000000000000000440028D2
:1052200000100010002800440000000000000000F2
:105230000044004400280028001000100010006006
:1052400000000000007C0008001000200040007CEE
:1052500000000000001800100010001000200020C6
:1052600000100010001000180010001000100010B6
:10527000001000100010001000100010003000108E
:10528000001000100008000800100010001000308E
:105290000000000000000074004C0000000000004E
:1052A00000000000000000000000000001020304F4
:1052B000060708090000000001020304456E74653A
:1052C00072206669727374206E756D62657221005A
:1052D0004469766964696E67206279207A65726FC5
:1052E000206973206E6F7420616C6C6F7765640049
:1052F0004E756D626572206C61796F757400000087
:1053000031203220330000003420352036000000E8
:105310003720382039000000232030203D000000D5
:1053200053796D626F6C206C61796F757400000049
:105330002B202D202E0000002A202F202E000000E0
:105340002E202E202E00000023203C2043000000B1
:1053500023202D204368616E6765206C61796F752D
:10536000740000003C202D2044656C6574650000CD
:1053700043202D2052657365740000002E202D20DF
:105380004E6F206F7065726174696F6E000000006F
:105390004572726F7220777269746520706F6C61EC
:1053A000726974790A0000004572726F7220777218
:1053B000697465206F75747075740A004572726F38
:1053C0007220777269746520696E69740A00000042
:1053D0004572726F7220777269746520636F6E66B2
:1053E00069670A0052656164206572726F720A0013
:1053F00075736F70736869790000000044696564B3
:10540000436C6F7564000000757675736962756E24
:10541000656B61006B6F7265616E5F626F79000032
:105420004B4220746573742073746172740A0000B7
:1054300046726F6D20626F74746F6D20746F20748C
:105440006F700000526967687420707265737365CD
:10545000640A000043656E74657220707265737330
:1054600065640A004C6566742070726573736564C8
:105470000A000000526F7720636F6D706C65746571
:105480000A0000004B42207465737420636F6D70D6
:105490006C6574650A0000003030303030303030D8
:1054A00030303030003031323334353637383961CE
:1054B00062636465666768696A6B6C6D6E6F707154
:0C54C00072737475767778797A000000BA
:0854CC00FCACFF7F01000000B1
:0454D400AD0100081E
:0454D800890100083E
:1054DC0001000000100000000100000000000000AE
:1054EC00000000002B0001003132333435363738E0
:1054FC003923303D2B2D2E2A2F2E2E2E2E233C439E
:10550C00101A0000902A00080B120000DC3D000865
:0C551C00070A0000384B00080024F400CF
:0400000508002915B1
:00000001FF
